{
  "_format": "hh-sol-artifact-1",
  "contractName": "XchgNs",
  "sourceName": "contracts/XchgNs.sol",
  "abi": [
    {
      "inputs": [
        {
          "internalType": "bytes32",
          "name": "prefix",
          "type": "bytes32"
        }
      ],
      "stateMutability": "nonpayable",
      "type": "constructor"
    },
    {
      "anonymous": false,
      "inputs": [
        {
          "indexed": true,
          "internalType": "address",
          "name": "_owner",
          "type": "address"
        },
        {
          "indexed": true,
          "internalType": "bytes32",
          "name": "_name",
          "type": "bytes32"
        },
        {
          "indexed": false,
          "internalType": "bytes32",
          "name": "_address",
          "type": "bytes32"
        }
      ],
      "name": "Registered",
      "type": "event"
    },
    {
      "inputs": [
        {
          "internalType": "bytes32",
          "name": "bs",
          "type": "bytes32"
        },
        {
          "internalType": "bool",
          "name": "allowPoint",
          "type": "bool"
        }
      ],
      "name": "checkDomainName",
      "outputs": [],
      "stateMutability": "pure",
      "type": "function"
    },
    {
      "inputs": [],
      "name": "domainCount",
      "outputs": [
        {
          "internalType": "uint256",
          "name": "",
          "type": "uint256"
        }
      ],
      "stateMutability": "view",
      "type": "function"
    },
    {
      "inputs": [
        {
          "internalType": "uint256",
          "name": "",
          "type": "uint256"
        }
      ],
      "name": "domains",
      "outputs": [
        {
          "internalType": "bool",
          "name": "isRegistered",
          "type": "bool"
        },
        {
          "internalType": "address",
          "name": "owner",
          "type": "address"
        },
        {
          "internalType": "bytes32",
          "name": "name",
          "type": "bytes32"
        },
        {
          "internalType": "bytes32",
          "name": "fullName",
          "type": "bytes32"
        },
        {
          "internalType": "bytes32",
          "name": "xchgAddress",
          "type": "bytes32"
        },
        {
          "internalType": "uint256",
          "name": "parentDomainId",
          "type": "uint256"
        }
      ],
      "stateMutability": "view",
      "type": "function"
    },
    {
      "inputs": [
        {
          "internalType": "bytes32",
          "name": "_name",
          "type": "bytes32"
        },
        {
          "internalType": "bool",
          "name": "panicIfNotFound",
          "type": "bool"
        }
      ],
      "name": "findDomainId",
      "outputs": [
        {
          "internalType": "uint256",
          "name": "",
          "type": "uint256"
        }
      ],
      "stateMutability": "view",
      "type": "function"
    },
    {
      "inputs": [
        {
          "internalType": "uint256",
          "name": "index",
          "type": "uint256"
        }
      ],
      "name": "getMyDomain",
      "outputs": [
        {
          "internalType": "bytes32",
          "name": "",
          "type": "bytes32"
        }
      ],
      "stateMutability": "view",
      "type": "function"
    },
    {
      "inputs": [
        {
          "internalType": "uint256",
          "name": "index",
          "type": "uint256"
        }
      ],
      "name": "getMyDomainInfo",
      "outputs": [
        {
          "components": [
            {
              "internalType": "bool",
              "name": "isRegistered",
              "type": "bool"
            },
            {
              "internalType": "address",
              "name": "owner",
              "type": "address"
            },
            {
              "internalType": "bytes32",
              "name": "name",
              "type": "bytes32"
            },
            {
              "internalType": "bytes32",
              "name": "fullName",
              "type": "bytes32"
            },
            {
              "internalType": "bytes32",
              "name": "xchgAddress",
              "type": "bytes32"
            },
            {
              "internalType": "uint256",
              "name": "parentDomainId",
              "type": "uint256"
            },
            {
              "internalType": "uint256[]",
              "name": "subDomainIds",
              "type": "uint256[]"
            }
          ],
          "internalType": "struct XchgNs.Domain",
          "name": "result",
          "type": "tuple"
        }
      ],
      "stateMutability": "view",
      "type": "function"
    },
    {
      "inputs": [],
      "name": "myDomains",
      "outputs": [
        {
          "internalType": "uint256",
          "name": "",
          "type": "uint256"
        }
      ],
      "stateMutability": "view",
      "type": "function"
    },
    {
      "inputs": [
        {
          "internalType": "bytes32",
          "name": "_name",
          "type": "bytes32"
        },
        {
          "internalType": "bytes32",
          "name": "_parentDomainName",
          "type": "bytes32"
        },
        {
          "internalType": "bytes32",
          "name": "_xchgAddress",
          "type": "bytes32"
        }
      ],
      "name": "registerDomain",
      "outputs": [
        {
          "internalType": "uint256",
          "name": "",
          "type": "uint256"
        }
      ],
      "stateMutability": "payable",
      "type": "function"
    },
    {
      "inputs": [],
      "name": "rootDomainId",
      "outputs": [
        {
          "internalType": "uint256",
          "name": "",
          "type": "uint256"
        }
      ],
      "stateMutability": "view",
      "type": "function"
    },
    {
      "inputs": [
        {
          "internalType": "bytes32",
          "name": "data",
          "type": "bytes32"
        }
      ],
      "name": "splitString",
      "outputs": [
        {
          "internalType": "bytes32[]",
          "name": "",
          "type": "bytes32[]"
        }
      ],
      "stateMutability": "pure",
      "type": "function"
    }
  ],
  "bytecode": "0x608060405260006001557f78636867000000000000000000000000000000000000000000000000000000006003553480156200003a57600080fd5b5060405162002355380380620023558339818101604052810190620000609190620002b5565b806003819055506001805462000077919062000320565b6002819055506040518060e001604052806001151581526020013373ffffffffffffffffffffffffffffffffffffffff168152602001600354815260200160035481526020016000801b815260200160008152602001600067ffffffffffffffff811115620000eb57620000ea6200035b565b5b6040519080825280602002602001820160405280156200011a5781602001602082028036833780820191505090505b50815250600080600254815260200190815260200160002060008201518160000160006101000a81548160ff02191690831515021790555060208201518160000160016101000a81548173ffffffffffffffffffffffffffffffffffffffff021916908373ffffffffffffffffffffffffffffffffffffffff16021790555060408201518160010155606082015181600201556080820151816003015560a0820151816004015560c0820151816005019080519060200190620001df92919062000204565b5090505060016000815480929190620001f8906200038a565b919050555050620003d7565b82805482825590600052602060002090810192821562000243579160200282015b828111156200024257825182559160200191906001019062000225565b5b50905062000252919062000256565b5090565b5b808211156200027157600081600090555060010162000257565b5090565b600080fd5b6000819050919050565b6200028f816200027a565b81146200029b57600080fd5b50565b600081519050620002af8162000284565b92915050565b600060208284031215620002ce57620002cd62000275565b5b6000620002de848285016200029e565b91505092915050565b6000819050919050565b7f4e487b7100000000000000000000000000000000000000000000000000000000600052601160045260246000fd5b60006200032d82620002e7565b91506200033a83620002e7565b9250828201905080821115620003555762000354620002f1565b5b92915050565b7f4e487b7100000000000000000000000000000000000000000000000000000000600052604160045260246000fd5b60006200039782620002e7565b91507fffffffffffffffffffffffffffffffffffffffffffffffffffffffffffffffff8203620003cc57620003cb620002f1565b5b600182019050919050565b611f6e80620003e76000396000f3fe6080604052600436106100915760003560e01c806366cf8fab1161005957806366cf8fab146101a85780638aaf5caf146101ea5780639a42891c14610215578063ef9ea15614610252578063fb7b395e1461027b57610091565b8063111372cf14610096578063290c8e11146100d3578063486f0b12146100fe5780634c1a8d931461013b5780636236be2e14610178575b600080fd5b3480156100a257600080fd5b506100bd60048036038101906100b89190611453565b6102a6565b6040516100ca9190611499565b60405180910390f35b3480156100df57600080fd5b506100e8610387565b6040516100f591906114c3565b60405180910390f35b34801561010a57600080fd5b5061012560048036038101906101209190611542565b61043c565b60405161013291906114c3565b60405180910390f35b34801561014757600080fd5b50610162600480360381019061015d9190611582565b6106b1565b60405161016f919061166d565b60405180910390f35b610192600480360381019061018d919061168f565b610966565b60405161019f91906114c3565b60405180910390f35b3480156101b457600080fd5b506101cf60048036038101906101ca9190611453565b610e19565b6040516101e196959493929190611732565b60405180910390f35b3480156101f657600080fd5b506101ff610e82565b60405161020c91906114c3565b60405180910390f35b34801561022157600080fd5b5061023c60048036038101906102379190611453565b610e88565b604051610249919061190b565b60405180910390f35b34801561025e57600080fd5b5061027960048036038101906102749190611542565b611068565b005b34801561028757600080fd5b506102906112d5565b60405161029d91906114c3565b60405180910390f35b600080600090506000600190505b600180546102c2919061195c565b811015610379573373ffffffffffffffffffffffffffffffffffffffff1660008083815260200190815260200160002060000160019054906101000a900473ffffffffffffffffffffffffffffffffffffffff1673ffffffffffffffffffffffffffffffffffffffff160361036657838203610357576000808281526020019081526020016000206001015492505050610382565b818061036290611990565b9250505b808061037190611990565b9150506102b4565b506000801b9150505b919050565b600080600090506000600190505b600180546103a3919061195c565b811015610434573373ffffffffffffffffffffffffffffffffffffffff1660008083815260200190815260200160002060000160019054906101000a900473ffffffffffffffffffffffffffffffffffffffff1673ffffffffffffffffffffffffffffffffffffffff160361042157818061041d90611990565b9250505b808061042c90611990565b915050610395565b508091505090565b600080610448846112db565b11610488576040517f08c379a000000000000000000000000000000000000000000000000000000000815260040161047f90611a35565b60405180910390fd5b610493836001611068565b600061049e846106b1565b905060008151116104e4576040517f08c379a00000000000000000000000000000000000000000000000000000000081526004016104db90611aa1565b60405180910390fd5b60035481600183516104f69190611ac1565b8151811061050757610506611af5565b5b60200260200101511461054f576040517f08c379a000000000000000000000000000000000000000000000000000000000815260040161054690611b70565b60405180910390fd5b600060025490506000600190505b82518110156106a457600081600185516105779190611ac1565b6105819190611ac1565b90506000805b6000808681526020019081526020016000206005018054905081101561063457600080600087815260200190815260200160002060050182815481106105d0576105cf611af5565b5b906000526020600020015490508684815181106105f0576105ef611af5565b5b60200260200101516000808381526020019081526020016000206001015403610620578095506001925050610634565b50808061062c90611990565b915050610587565b50861561067c578061067b576040517f08c379a000000000000000000000000000000000000000000000000000000000815260040161067290611bdc565b60405180910390fd5b5b8061068f576000955050505050506106ab565b5050808061069c90611990565b91505061055d565b5080925050505b92915050565b60606000805b602081101561071e57600060f81b8482602081106106d8576106d7611af5565b5b1a60f81b7effffffffffffffffffffffffffffffffffffffffffffffffffffffffffffff19160361070b5780915061071e565b808061071690611990565b9150506106b7565b5060008167ffffffffffffffff81111561073b5761073a611bfc565b5b6040519080825280602002602001820160405280156107695781602001602082028036833780820191505090505b5090506000808060001b90506000805b8581101561086f57602e60f81b88826020811061079957610798611af5565b5b1a60f81b7effffffffffffffffffffffffffffffffffffffffffffffffffffffffffffff19160361080157828585815181106107d8576107d7611af5565b5b6020026020010181815250506000801b92506000915083806107f990611990565b94505061085c565b60088261080e9190611c2b565b88826020811061082157610820611af5565b5b1a60f81b7effffffffffffffffffffffffffffffffffffffffffffffffffffffffffffff1916901c83179250818061085890611990565b9250505b808061086790611990565b915050610779565b5060008111156108b2578184848151811061088d5761088c611af5565b5b6020026020010181815250506000801b91506000905082806108ae90611990565b9350505b60008367ffffffffffffffff8111156108ce576108cd611bfc565b5b6040519080825280602002602001820160405280156108fc5781602001602082028036833780820191505090505b50905060005b848110156109575785818151811061091d5761091c611af5565b5b602002602001015182828151811061093857610937611af5565b5b602002602001018181525050808061094f90611990565b915050610902565b50809650505050505050919050565b600080610972846112db565b116109b2576040517f08c379a00000000000000000000000000000000000000000000000000000000081526004016109a990611cdf565b60405180910390fd5b60006109bf84600161043c565b905060008082815260200190815260200160002060000160009054906101000a900460ff16610a23576040517f08c379a0000000000000000000000000000000000000000000000000000000008152600401610a1a90611d4b565b60405180910390fd5b60008082815260200190815260200160002060000160019054906101000a900473ffffffffffffffffffffffffffffffffffffffff1673ffffffffffffffffffffffffffffffffffffffff163373ffffffffffffffffffffffffffffffffffffffff1614610ac6576040517f08c379a0000000000000000000000000000000000000000000000000000000008152600401610abd90611ddd565b60405180910390fd5b610ad1856000611068565b60008590506008610ae1876112db565b610aeb9190611c2b565b7f2e0000000000000000000000000000000000000000000000000000000000000060001b901c8117905060005b610b21866112db565b811015610bac576000816001610b368a6112db565b610b40919061195c565b610b4a919061195c565b9050600881610b599190611c2b565b878360208110610b6c57610b6b611af5565b5b1a60f81b7effffffffffffffffffffffffffffffffffffffffffffffffffffffffffffff1916901c83179250508080610ba490611990565b915050610b18565b506000610bba82600061043c565b905060008114610bff576040517f08c379a0000000000000000000000000000000000000000000000000000000008152600401610bf690611e49565b60405180910390fd5b600060018054610c0f919061195c565b90506040518060e001604052806001151581526020013373ffffffffffffffffffffffffffffffffffffffff168152602001898152602001848152602001878152602001858152602001600067ffffffffffffffff811115610c7457610c73611bfc565b5b604051908082528060200260200182016040528015610ca25781602001602082028036833780820191505090505b5081525060008083815260200190815260200160002060008201518160000160006101000a81548160ff02191690831515021790555060208201518160000160016101000a81548173ffffffffffffffffffffffffffffffffffffffff021916908373ffffffffffffffffffffffffffffffffffffffff16021790555060408201518160010155606082015181600201556080820151816003015560a0820151816004015560c0820151816005019080519060200190610d63929190611350565b5090505060008085815260200190815260200160002060050181908060018154018082558091505060019003906000526020600020016000909190919091505560016000815480929190610db690611990565b9190505550823373ffffffffffffffffffffffffffffffffffffffff167f6e7788094390b17970960cf310096f0de10956a8bcc4ec0cabe0bbfeb24d06f76000604051610e039190611eb1565b60405180910390a3809450505050509392505050565b60006020528060005260406000206000915090508060000160009054906101000a900460ff16908060000160019054906101000a900473ffffffffffffffffffffffffffffffffffffffff16908060010154908060020154908060030154908060040154905086565b60015481565b610e9061139d565b600080600190505b60018054610ea6919061195c565b811015611055573373ffffffffffffffffffffffffffffffffffffffff1660008083815260200190815260200160002060000160019054906101000a900473ffffffffffffffffffffffffffffffffffffffff1673ffffffffffffffffffffffffffffffffffffffff160361104257838203611033576000808281526020019081526020016000206040518060e00160405290816000820160009054906101000a900460ff161515151581526020016000820160019054906101000a900473ffffffffffffffffffffffffffffffffffffffff1673ffffffffffffffffffffffffffffffffffffffff1673ffffffffffffffffffffffffffffffffffffffff168152602001600182015481526020016002820154815260200160038201548152602001600482015481526020016005820180548060200260200160405190810160405280929190818152602001828054801561102157602002820191906000526020600020905b81548152602001906001019080831161100d575b50505050508152505092505050611063565b818061103e90611990565b9250505b808061104d90611990565b915050610e98565b50600061106157600080fd5b505b919050565b60005b600060f81b83826020811061108357611082611af5565b5b1a60f81b7effffffffffffffffffffffffffffffffffffffffffffffffffffffffffffff1916141580156110b75750602081105b156112d0576000603060f81b8483602081106110d6576110d5611af5565b5b1a60f81b7effffffffffffffffffffffffffffffffffffffffffffffffffffffffffffff1916101580156111465750603960f81b84836020811061111d5761111c611af5565b5b1a60f81b7effffffffffffffffffffffffffffffffffffffffffffffffffffffffffffff191611155b1561115057600190505b606160f81b84836020811061116857611167611af5565b5b1a60f81b7effffffffffffffffffffffffffffffffffffffffffffffffffffffffffffff1916101580156111d85750607a60f81b8483602081106111af576111ae611af5565b5b1a60f81b7effffffffffffffffffffffffffffffffffffffffffffffffffffffffffffff191611155b156111e257600190505b602d60f81b8483602081106111fa576111f9611af5565b5b1a60f81b7effffffffffffffffffffffffffffffffffffffffffffffffffffffffffffff19160361122a57600190505b8280156112725750602e60f81b84836020811061124a57611249611af5565b5b1a60f81b7effffffffffffffffffffffffffffffffffffffffffffffffffffffffffffff1916145b1561127c57600190505b806112bc576040517f08c379a00000000000000000000000000000000000000000000000000000000081526004016112b390611f18565b60405180910390fd5b81806112c790611990565b9250505061106b565b505050565b60025481565b600080600090505b600060f81b8382602081106112fb576112fa611af5565b5b1a60f81b7effffffffffffffffffffffffffffffffffffffffffffffffffffffffffffff19161415801561132f5750602081105b1561134757808061133f90611990565b9150506112e3565b80915050919050565b82805482825590600052602060002090810192821561138c579160200282015b8281111561138b578251825591602001919060010190611370565b5b50905061139991906113fb565b5090565b6040518060e00160405280600015158152602001600073ffffffffffffffffffffffffffffffffffffffff16815260200160008019168152602001600080191681526020016000801916815260200160008152602001606081525090565b5b808211156114145760008160009055506001016113fc565b5090565b600080fd5b6000819050919050565b6114308161141d565b811461143b57600080fd5b50565b60008135905061144d81611427565b92915050565b60006020828403121561146957611468611418565b5b60006114778482850161143e565b91505092915050565b6000819050919050565b61149381611480565b82525050565b60006020820190506114ae600083018461148a565b92915050565b6114bd8161141d565b82525050565b60006020820190506114d860008301846114b4565b92915050565b6114e781611480565b81146114f257600080fd5b50565b600081359050611504816114de565b92915050565b60008115159050919050565b61151f8161150a565b811461152a57600080fd5b50565b60008135905061153c81611516565b92915050565b6000806040838503121561155957611558611418565b5b6000611567858286016114f5565b92505060206115788582860161152d565b9150509250929050565b60006020828403121561159857611597611418565b5b60006115a6848285016114f5565b91505092915050565b600081519050919050565b600082825260208201905092915050565b6000819050602082019050919050565b6115e481611480565b82525050565b60006115f683836115db565b60208301905092915050565b6000602082019050919050565b600061161a826115af565b61162481856115ba565b935061162f836115cb565b8060005b8381101561166057815161164788826115ea565b975061165283611602565b925050600181019050611633565b5085935050505092915050565b60006020820190508181036000830152611687818461160f565b905092915050565b6000806000606084860312156116a8576116a7611418565b5b60006116b6868287016114f5565b93505060206116c7868287016114f5565b92505060406116d8868287016114f5565b9150509250925092565b6116eb8161150a565b82525050565b600073ffffffffffffffffffffffffffffffffffffffff82169050919050565b600061171c826116f1565b9050919050565b61172c81611711565b82525050565b600060c08201905061174760008301896116e2565b6117546020830188611723565b611761604083018761148a565b61176e606083018661148a565b61177b608083018561148a565b61178860a08301846114b4565b979650505050505050565b61179c8161150a565b82525050565b6117ab81611711565b82525050565b6117ba8161141d565b82525050565b600081519050919050565b600082825260208201905092915050565b6000819050602082019050919050565b60006117f883836117b1565b60208301905092915050565b6000602082019050919050565b600061181c826117c0565b61182681856117cb565b9350611831836117dc565b8060005b8381101561186257815161184988826117ec565b975061185483611804565b925050600181019050611835565b5085935050505092915050565b600060e0830160008301516118876000860182611793565b50602083015161189a60208601826117a2565b5060408301516118ad60408601826115db565b5060608301516118c060608601826115db565b5060808301516118d360808601826115db565b5060a08301516118e660a08601826117b1565b5060c083015184820360c08601526118fe8282611811565b9150508091505092915050565b60006020820190508181036000830152611925818461186f565b905092915050565b7f4e487b7100000000000000000000000000000000000000000000000000000000600052601160045260246000fd5b60006119678261141d565b91506119728361141d565b925082820190508082111561198a5761198961192d565b5b92915050565b600061199b8261141d565b91507fffffffffffffffffffffffffffffffffffffffffffffffffffffffffffffffff82036119cd576119cc61192d565b5b600182019050919050565b600082825260208201905092915050565b7f6e616d6520697320656d70747900000000000000000000000000000000000000600082015250565b6000611a1f600d836119d8565b9150611a2a826119e9565b602082019050919050565b60006020820190508181036000830152611a4e81611a12565b9050919050565b7f656d70747920646f6d61696e206e616d65000000000000000000000000000000600082015250565b6000611a8b6011836119d8565b9150611a9682611a55565b602082019050919050565b60006020820190508181036000830152611aba81611a7e565b9050919050565b6000611acc8261141d565b9150611ad78361141d565b9250828203905081811115611aef57611aee61192d565b5b92915050565b7f4e487b7100000000000000000000000000000000000000000000000000000000600052603260045260246000fd5b7f696e76616c696420726f6f7420646f6d61696e00000000000000000000000000600082015250565b6000611b5a6013836119d8565b9150611b6582611b24565b602082019050919050565b60006020820190508181036000830152611b8981611b4d565b9050919050565b7f446f6d61696e20646f6573206e6f742065786973740000000000000000000000600082015250565b6000611bc66015836119d8565b9150611bd182611b90565b602082019050919050565b60006020820190508181036000830152611bf581611bb9565b9050919050565b7f4e487b7100000000000000000000000000000000000000000000000000000000600052604160045260246000fd5b6000611c368261141d565b9150611c418361141d565b9250828202611c4f8161141d565b91508282048414831517611c6657611c6561192d565b5b5092915050565b7f706172656e7420646f6d61696e206e616d65206c656e206d757374206265203e60008201527f2030000000000000000000000000000000000000000000000000000000000000602082015250565b6000611cc96022836119d8565b9150611cd482611c6d565b604082019050919050565b60006020820190508181036000830152611cf881611cbc565b9050919050565b7f506172656e7420646f6d61696e20646f6573206e6f7420657869737400000000600082015250565b6000611d35601c836119d8565b9150611d4082611cff565b602082019050919050565b60006020820190508181036000830152611d6481611d28565b9050919050565b7f596f7520617265206e6f7420746865206f776e6572206f66207468652070617260008201527f656e7420646f6d61696e00000000000000000000000000000000000000000000602082015250565b6000611dc7602a836119d8565b9150611dd282611d6b565b604082019050919050565b60006020820190508181036000830152611df681611dba565b9050919050565b7f646f6d61696e20616c7265616479206578697374730000000000000000000000600082015250565b6000611e336015836119d8565b9150611e3e82611dfd565b602082019050919050565b60006020820190508181036000830152611e6281611e26565b9050919050565b6000819050919050565b60008160001b9050919050565b6000611e9b611e96611e9184611e69565b611e73565b611480565b9050919050565b611eab81611e80565b82525050565b6000602082019050611ec66000830184611ea2565b92915050565b7f696e76616c696420646f6d61696e206e616d6500000000000000000000000000600082015250565b6000611f026013836119d8565b9150611f0d82611ecc565b602082019050919050565b60006020820190508181036000830152611f3181611ef5565b905091905056fea26469706673582212201fc4b4debfc1d468a720af734578e94a66a84b1da6175ea719c11ee19e1ebd0f64736f6c63430008120033",
  "linkReferences": {},
  "deployedLinkReferences": {}
}